:100000000C945D000C9485000C9485000C94850084
:100010000C9485000C9485000C9485000C9485004C
:100020000C9485000C9485000C9485000C9485003C
:100030000C9485000C9485000C9485000C9485002C
:100040000C947A050C9485000C9448050C942205B8
:100050000C9485000C9485000C9485000C9485000C
:100060000C9485000C9485000000000024002700FB
:100070002A0000000000250028002B0004040404CE
:100080000404040402020202020203030303030342
:10009000010204081020408001020408102001021F
:1000A00004081020000000080002010000030407FB
:1000B0000000000000000000C40511241FBECFEFA7
:1000C000D8E0DEBFCDBF11E0A0E0B1E0E8E5F5E1AA
:1000D00002C005900D92A437B107D9F722E0A4E73A
:1000E000B1E001C01D92AE33B207E1F710E0CDE5FB
:1000F000D0E004C02197FE010E94A40ACC35D107AC
:10010000C9F70E940F060C94AA0A0C940000AF9243
:10011000BF92CF92DF92EF92FF920F931F93CF93F4
:10012000DF936C017B018B01040F151FEB015E0156
:10013000AE18BF08C017D10759F06991D601ED91EB
:10014000FC910190F081E02DC6010995892B79F78A
:10015000C501DF91CF911F910F91FF90EF90DF903C
:10016000CF90BF90AF900895FC01538D448D252F03
:1001700030E0842F90E0821B930B541710F0CF9641
:10018000089501970895FC01918D828D981761F073
:10019000A28DAE0FBF2FB11D5D968C91928D9F5F8A
:1001A0009F73928F90E008958FEF9FEF0895FC0169
:1001B000918D828D981731F0828DE80FF11D858D1C
:1001C00090E008958FEF9FEF0895FC01918D228DAF
:1001D000892F90E0805C9F4F821B91098F73992734
:1001E000089589E891E00E94E50021E0892B09F457
:1001F00020E0822F089580E090E0892B29F00E9472
:10020000F10081110C9400000895FC01A48DA80F49
:10021000B92FB11DA35ABF4F2C91848D90E0019648
:100220008F739927848FA689B7892C93A089B18968
:100230008C91837080648C93938D848D981306C009
:100240000288F389E02D80818F7D80830895EF926D
:10025000FF920F931F93CF93DF93EC0181E0888F80
:100260009B8D8C8D98131AC0E889F989808185FF50
:1002700015C09FB7F894EE89FF896083E889F989F2
:1002800080818370806480839FBF81E090E0DF91F4
:10029000CF911F910F91FF90EF900895F62E0B8D47
:1002A00010E00F5F1F4F0F731127E02E8C8D8E1102
:1002B0000CC00FB607FCFACFE889F989808185FF69
:1002C000F5CFCE010E940501F1CFEB8DEC0FFD2F94
:1002D000F11DE35AFF4FF0829FB7F8940B8FEA8924
:1002E000FB8980818062CFCFCF93DF93EC01888D33
:1002F0008823B9F0AA89BB89E889F9898C9185FDA1
:1003000003C0808186FD0DC00FB607FCF7CF8C912E
:1003100085FFF2CF808185FFEDCFCE010E940501E0
:10032000E9CFDF91CF91089590E0FC01EC55FF4FAC
:100330002491FC01E057FF4F3491FC01E458FF4F3A
:10034000E491EE23C9F0222339F0233001F1A8F41F
:10035000213019F1223029F1F0E0EE0FFF1FEE58A5
:10036000FF4FA591B4918FB7F894EC91611126C01D
:1003700030953E233C938FBF08952730A9F0283055
:10038000C9F0243049F7809180008F7D03C08091AF
:1003900080008F7780938000DFCF84B58F7784BD16
:1003A000DBCF84B58F7DFBCF8091B0008F778093BA
:1003B000B000D2CF8091B0008F7DF9CF3E2BDACF45
:1003C000CF93DF9390E0FC01E057FF4F24918458D6
:1003D0009F4FFC0184918823D1F090E0880F991FF2
:1003E000FC01E859FF4FA591B491FC01EE58FF4F75
:1003F000C591D49161110EC09FB7F8948C91E22FF2
:10040000E0958E238C932881E223E8839FBFDF91C0
:10041000CF9108958FB7F894EC91E22BEC938FBFB6
:10042000F6CF8E50806480937C0080917A00806447
:1004300080937A0080917A0086FDFCCF80917800CD
:100440009091790008953FB7F89480917901909147
:100450007A01A0917B01B0917C0126B5A89B05C0D3
:100460002F3F19F00196A11DB11D3FBFBA2FA92F33
:10047000982F8827BC01CD01620F711D811D911D30
:1004800042E0660F771F881F991F4A95D1F708959C
:100490008F929F92AF92BF92CF92DF92EF92FF9294
:1004A0004B015C010E9423026B017C010E9423022C
:1004B0006C197D098E099F09683E7340810591057D
:1004C000A8F321E0821A9108A108B10888EEC80EAD
:1004D00083E0D81EE11CF11C81149104A104B10435
:1004E00029F7FF90EF90DF90CF90BF90AF909F9053
:1004F0008F900895089590E080E00895FB010190A9
:100500000020E9F73197AF01461B570BDC01ED9155
:10051000FC910280F381E02D09948F929F92AF921B
:10052000BF92EF92FF920F931F93CF93DF93CDB7BC
:10053000DEB7A1970FB6F894DEBF0FBECDBF7C012A
:10054000FA01CB0119A2223008F42AE08E010F5DD6
:100550001F4F822E912CB12CA12CBF01A50194011B
:100560000E94820AF901CA016A300CF5605DD80167
:100570006E938D01232B242B252B79F790E080E0BF
:10058000109721F0BD01C7010E947E02A1960FB60F
:10059000F894DEBF0FBECDBFDF91CF911F910F91B9
:1005A000FF90EF90BF90AF909F908F900895695CFF
:1005B000DECF0C947E022F923F924F925F926F9209
:1005C0007F928F929F92AF92BF92CF92DF92EF92E3
:1005D000FF921F93CF93DF93EC016A017B01722E90
:1005E000AB019601CB01B6010E947D0A6EE171E07C
:1005F000811126C046015701E894B7F82FEF3FEF6D
:100600004FE75FE7C501B4010E947D0A81110CC06C
:100610002FEF3FEF4FE75FE7C501B4010E94B3083A
:1006200062E271E0181664F02FEF3FEF4FE75FE4EE
:10063000C701B6010E940B0A1816B4F466E271E015
:10064000CE01DF91CF911F91FF90EF90DF90CF907F
:10065000BF90AF909F908F907F906F905F904F90E2
:100660003F902F900C947E022FEF3FEF4FE75FEC0F
:10067000C701B6010E94B30887FDE0CF20E030E05B
:10068000A901C701B6010E94B308312C212C87FFB4
:100690000DC0E881F9810190F081E02D6DE2CE017D
:1006A00009951C01F7FAF094F7F8F09410E060E077
:1006B00070E080E09FE3711641F020E030E040E21E
:1006C00051E40E94B8081F5FF6CFA70196010E946F
:1006D00047082B013C010E942A094B015C012AE0DA
:1006E000BC01A401CE010E948D027C01E20CF31C2E
:1006F0001123E1F1C501B4010E9459099B01AC012C
:10070000C301B2010E9446084B015C01E881F981F6
:100710000190F081E02D6EE2CE010995E80EF91E00
:10072000115020F120E030E040E251E4C501B40175
:100730000E94100A2B013C010E942A094B01B12C96
:10074000A12C2AE0B501A401CE010E948D02E80E81
:10075000F91EC501B4010E9459099B01AC01C301F6
:10076000B2010E9446084B015C01DACFC701DF915C
:10077000CF911F91FF90EF90DF90CF90BF90AF90FF
:100780009F908F907F906F905F904F903F902F90B1
:100790000895CF93DF93EC0160E08E810E94940175
:1007A00061E08E810E94940160E08E810E9494013C
:1007B0008BE891E00197F1F7DF91CF910895CF9207
:1007C000DF92EF92FF920F931F93CF93DF936C0111
:1007D0007C0187E0E80EF11CD0E0C0E0062F10E0BD
:1007E000B8010C2E02C0759567950A94E2F7617006
:1007F000F70181917F010E9494012196C430D105B7
:1008000079F7C601DF91CF911F910F91FF90EF9083
:10081000DF90CF900C94C903CF92DF92EF92FF92BA
:100820000F931F93CF93DF93EC01F62E642F8C81EF
:100830000E9494018D818F3F19F060E00E94940125
:100840000F2D10E08F8584FF25C06E0187E0C80E54
:10085000D11CF12CE12CB8010E2C02C075956795C6
:100860000A94E2F76170F60181916F010E94940190
:10087000FFEFEF1AFF0A88E0E816F10461F7CE01F6
:10088000DF91CF911F910F91FF90EF90DF90CF906C
:100890000C94C903B80184E0759567958A95E1F7D2
:1008A000CE010E94DF036F2DCE01DF91CF911F910A
:1008B0000F91FF90EF90DF90CF900C94DF0340E01A
:1008C000682F86E292E00C940C0481E00E945F04A1
:1008D0008BE39FE10197F1F70895CF93DF936130A8
:1008E00029F0909135029860909335026093390217
:1008F00010923A0290E490933B0280933C02805C19
:1009000080933D0261E080912A020E94E001809183
:100910002B028F3F19F061E00E94E00161E08091BD
:100920002C020E94E001C6E2D2E09E012652324033
:100930008091350284FD0BC084E090E02196281759
:10094000390744F461E08E810E94E001EECF88E037
:1009500090E0F4CF8BE39DE00197F1F760E08091A8
:100960002A020E94940160E080912C020E9494016E
:1009700080912B028F3F19F060E00E9494018091DA
:10098000350284FD34C063E086E292E00E94DF031A
:10099000CBE4D6E4CE010197F1F763E086E292E082
:1009A0000E94DF032197F1F763E086E292E00E9464
:1009B000DF0383E592E00197F1F762E086E292E0DF
:1009C0000E94DF038091350280620E945F0484E010
:1009D000809336028CE00E945F040E94650482E0EE
:1009E0008093370286E0DF91CF910C945F048062A0
:1009F0000E945F048BE496E40197F1F78091350241
:100A000080620E945F0483E592E00197F1F7809194
:100A1000350280620E945F04D5CF90913902691738
:100A200010F06FEF690FE62FF0E0EA5DFD4F94895B
:100A3000890F80680C945F0441E00E940C0481E0FF
:100A400090E008951F920F920FB60F9211242F93EA
:100A50003F934F935F936F937F938F939F93AF9346
:100A6000BF93EF93FF9389E891E00E940501FF9106
:100A7000EF91BF91AF919F918F917F916F915F9116
:100A80004F913F912F910F900FBE0F901F9018958F
:100A90001F920F920FB60F9211242F938F939F9353
:100AA000EF93FF93E0919901F0919A018081E09199
:100AB0009F01F091A00182FD1BC090818091A20155
:100AC0008F5F8F732091A301821741F0E091A20103
:100AD000F0E0E757FE4F958F8093A201FF91EF91D1
:100AE0009F918F912F910F900FBE0F901F9018958F
:100AF0008081F4CF1F920F920FB60F9211242F9383
:100B00003F938F939F93AF93BF9380917501909183
:100B10007601A0917701B09178013091740123E0C2
:100B2000230F2D3758F50196A11DB11D2093740197
:100B30008093750190937601A0937701B09378012B
:100B40008091790190917A01A0917B01B0917C0113
:100B50000196A11DB11D8093790190937A01A09314
:100B60007B01B0937C01BF91AF919F918F913F9199
:100B70002F910F900FBE0F901F90189526E8230F0E
:100B80000296A11DB11DD2CFE9E8F1E013821282D5
:100B900088EE93E0A0E0B0E084839583A683B783DA
:100BA00084E091E09183808385EC90E09587848751
:100BB00084EC90E09787868780EC90E0918B808B27
:100BC00081EC90E0938B828B82EC90E0958B848B10
:100BD00086EC90E0978B868B118E128E138E148E7E
:100BE000E6E2F2E01382128286E191E09183808353
:100BF00082E084838FEF858383E0868384E087832C
:100C000085E0808786E0818787E082871386148667
:100C100015861686178661E080E10C946D04789441
:100C200084B5826084BD84B5816084BD85B58260F1
:100C300085BD85B5816085BD80916E0081608093A2
:100C40006E0010928100809181008260809381000B
:100C5000809181008160809381008091800081601B
:100C6000809380008091B10084608093B100809176
:100C7000B00081608093B00080917A00846080939E
:100C80007A0080917A00826080937A0080917A0065
:100C9000816080937A0080917A00806880937A00E6
:100CA0001092C10060E080E00E94E001E0919901B3
:100CB000F0919A0182E08083E0919501F091960194
:100CC0001082E0919701F09198018FEC808310924F
:100CD000A101E0919D01F0919E0186E08083E09169
:100CE0009B01F0919C01808180618083E0919B0158
:100CF000F0919C01808188608083E0919B01F0915C
:100D00009C01808180688083E0919B01F0919C012F
:100D100080818F7D808364E084E10E946D0461E0C6
:100D200084E00E940D056AE271E086E292E00E9492
:100D3000D90260ED77E080E090E00E9448020E94D6
:100D4000650468EE73E080E090E00E94480260E095
:100D500081E00E940D0566E371E086E292E00E9468
:100D6000D9026CE271E080E090E00E94480261E00C
:100D700085E00E940D056EE371E086E292E00E943C
:100D8000D9026CE271E080E090E00E94480262E0EB
:100D900086E00E940D0561E471E086E292E00E9427
:100DA000D9026CE271E080E090E00E94480263E0CA
:100DB00083E00E940D056DE471E086E292E00E94FE
:100DC000D90268EB7BE080E090E00E9448020E943C
:100DD000650468EE73E080E090E00E94480265E5FB
:100DE00071E086E292E00E94D90260E08EE00E940B
:100DF0000D056AE571E086E292E00E94D90261E0A9
:100E000088E00E94E001C0E0D0E08EE00E94110284
:100E1000BC01990F880B990B0E945B099B01AC01E7
:100E20000E94470820E030E040E85AE30E94100AA0
:100E300020E030E040E85FE30E94460860938501CF
:100E40007093860180938701909388018FE00E94C0
:100E50001102BC01990F880B990B0E945B099B0141
:100E6000AC010E94470820E030E040E85AE30E94CD
:100E7000100A20E030E040E85FE30E9446086093FB
:100E8000810170938201809383019093840180E1BA
:100E90000E941102BC01990F880B990B0E945B09FB
:100EA0009B01AC010E94470820E030E040E85AE393
:100EB0000E94100A20E030E040E85FE30E9446080C
:100EC00060937D0170937E0180937F0190938001F8
:100ED00061E086E00E940D056FE571E086E292E038
:100EE0000E94D9024091850150918601609187014D
:100EF0007091880122E086E292E00E94DB0262E0CB
:100F000086E00E940D0564E671E086E292E00E94B0
:100F1000D9024091810150918201609183017091C9
:100F2000840122E086E292E00E94DB0263E086E038
:100F30000E940D0569E671E086E292E00E94D90206
:100F400040917D0150917E0160917F0170918001FF
:100F500022E086E292E00E94DB026EE170E080E037
:100F600090E00E9448024091850150918601609175
:100F700087017091880122E089E891E00E94DB02FC
:100F80006EE671E089E891E00E94D902409181010A
:100F900050918201609183017091840122E089E87F
:100FA00091E00E94DB026EE671E089E891E00E9428
:100FB000D90240917D0150917E0160917F01709135
:100FC000800122E089E891E00E94DB0260E771E0A5
:100FD00089E891E00E947E0220E030E040E05FE39B
:100FE00060918501709186018091870190918801BF
:100FF0000E940B0A181604F120E030E040E05FE3A5
:1010000060918101709182018091830190918401AE
:101010000E940B0A181684F020E030E040E05FE305
:1010200060917D0170917E0180917F01909180019E
:101030000E940B0A18162CF561E088E00E949401CA
:1010400068E873E180E090E00E94480260E088E098
:101050000E94940168EB7BE080E090E00E944802EF
:1010600068EE73E080E090E00E944802209709F467
:10107000CCCE0E94F100882309F4C7CE0E94000064
:10108000C4CE60E088E00E949401EACF5058BB27AC
:10109000AA270E945E080C94D1090E94C30938F067
:1010A0000E94CA0920F039F49F3F19F426F40C94E9
:1010B000C0090EF4E095E7FB0C94BA09E92F0E94F1
:1010C000E20958F3BA17620773078407950720F0FF
:1010D00079F4A6F50C94040A0EF4E0950B2EBA2FC1
:1010E000A02D0B01B90190010C01CA01A00111242E
:1010F000FF27591B99F0593F50F4503E68F11A16DA
:10110000F040A22F232F342F4427585FF3CF46956A
:1011100037952795A795F0405395C9F77EF41F168C
:10112000BA0B620B730B840BBAF09150A1F0FF0F56
:10113000BB1F661F771F881FC2F70EC0BA0F621F42
:10114000731F841F48F4879577956795B795F79532
:101150009E3F08F0B0CF9395880F08F09927EE0FC7
:101160009795879508950E94960908F481E008955F
:101170000E94CC080C94D1090E94CA0958F00E9420
:10118000C30940F029F45F3F29F00C94BA095111CA
:101190000C94050A0C94C0090E94E20968F3992393
:1011A000B1F3552391F3951B550BBB27AA27621763
:1011B0007307840738F09F5F5F4F220F331F441F70
:1011C000AA1FA9F335D00E2E3AF0E0E832D09150A4
:1011D0005040E695001CCAF72BD0FE2F29D0660F91
:1011E000771F881FBB1F261737074807AB07B0E8D4
:1011F00009F0BB0B802DBF01FF2793585F4F3AF0DA
:101200009E3F510578F00C94BA090C94050A5F3F93
:10121000E4F3983ED4F3869577956795B795F7955F
:101220009F5FC9F7880F911D9695879597F9089547
:10123000E1E0660F771F881FBB1F621773078407E3
:10124000BA0720F0621B730B840BBA0BEE1F88F7F2
:10125000E09508950E94EA0988F09F5798F0B92F09
:101260009927B751B0F0E1F0660F771F881F991FDB
:101270001AF0BA95C9F714C0B13091F00E94040A6F
:10128000B1E008950C94040A672F782F8827B85F7F
:1012900039F0B93FCCF3869577956795B395D9F733
:1012A0003EF490958095709561957F4F8F4F9F4F3D
:1012B0000895E89409C097FB3EF490958095709549
:1012C00061957F4F8F4F9F4F9923A9F0F92F96E992
:1012D000BB279395F695879577956795B795F11107
:1012E000F8CFFAF4BB0F11F460FF1BC06F5F7F4FA4
:1012F0008F4F9F4F16C0882311F096E911C07723B6
:1013000021F09EE8872F762F05C0662371F096E8BE
:10131000862F70E060E02AF09A95660F771F881F8D
:10132000DAF7880F9695879597F90895990F000831
:10133000550FAA0BE0E8FEEF16161706E807F907A7
:10134000C0F012161306E407F50798F0621B730B42
:10135000840B950B39F40A2661F0232B242B252BC3
:1013600021F408950A2609F4A140A6958FEF811D66
:10137000811D089597F99F6780E870E060E0089507
:101380009FEF80EC089500240A941616170618069D
:101390000906089500240A94121613061406050679
:1013A0000895092E0394000C11F4882352F0BB0F0A
:1013B00040F4BF2B11F460FF04C06F5F7F4F8F4F6D
:1013C0009F4F089557FD9058440F551F59F05F3FA8
:1013D00071F04795880F97FB991F61F09F3F79F057
:1013E00087950895121613061406551FF2CF4695D9
:1013F000F1DF08C0161617061806991FF1CF86955B
:101400007105610508940895E894BB27662777273E
:10141000CB0197F908950E94960908F48FEF08957B
:101420000E94230A0C94D1090E94C30938F00E943B
:10143000CA0920F0952311F00C94BA090C94C00944
:1014400011240C94050A0E94E20970F3959FC1F3E0
:10145000950F50E0551F629FF001729FBB27F00D62
:10146000B11D639FAA27F00DB11DAA1F649F6627B7
:10147000B00DA11D661F829F2227B00DA11D621F06
:10148000739FB00DA11D621F839FA00D611D221FC0
:10149000749F3327A00D611D231F849F600D211DA4
:1014A000822F762F6A2F11249F5750409AF0F1F027
:1014B00088234AF0EE0FFF1FBB1F661F771F881F90
:1014C00091505040A9F79E3F510580F00C94BA0905
:1014D0000C94050A5F3FE4F3983ED4F38695779524
:1014E0006795B795F795E7959F5FC1F7FE2B880F36
:1014F000911D9695879597F908950E949609880BF6
:10150000990B0895A1E21A2EAA1BBB1BFD010DC069
:10151000AA1FBB1FEE1FFF1FA217B307E407F507A3
:1015200020F0A21BB30BE40BF50B661F771F881F7F
:10153000991F1A9469F760957095809590959B0115
:10154000AC01BD01CF010895EE0FFF1F0590F4918E
:08155000E02D0994F894FFCF8F
:101558000000000027018700B4007401E500C30003
:10156800D700000000001C0587007B027A026E612C
:101578006E00696E66006F766600426F6E6A6F7500
:10158800722E2E2E2E00524F4255494E4F00427950
:101598000079616879612072686962610070726FB0
:1015A8006A656374002D3E59520032313C2D005853
:1015B800203D200059203D20005A203D20002C00CD
:0415C8000D0A000008
:00000001FF
